{
  "contractName": "Notary",
  "abi": [
    {
      "inputs": [],
      "stateMutability": "nonpayable",
      "type": "constructor"
    },
    {
      "inputs": [
        {
          "internalType": "bytes32",
          "name": "hash",
          "type": "bytes32"
        }
      ],
      "name": "addDocHash",
      "outputs": [],
      "stateMutability": "nonpayable",
      "type": "function"
    },
    {
      "inputs": [
        {
          "internalType": "bytes32",
          "name": "hash",
          "type": "bytes32"
        }
      ],
      "name": "findDocHash",
      "outputs": [
        {
          "internalType": "uint256",
          "name": "",
          "type": "uint256"
        },
        {
          "internalType": "uint256",
          "name": "",
          "type": "uint256"
        }
      ],
      "stateMutability": "view",
      "type": "function",
      "constant": true
    }
  ],
  "bytecode": "0x608060405234801561001057600080fd5b50610167806100206000396000f3fe608060405234801561001057600080fd5b50600436106100365760003560e01c8063133a48f31461003b5780634cf00d3f14610069575b600080fd5b6100676004803603602081101561005157600080fd5b81019080803590602001909291905050506100b2565b005b6100956004803603602081101561007f57600080fd5b81019080803590602001909291905050506100f9565b604051808381526020018281526020019250505060405180910390f35b600060405180604001604052804281526020014381525090508060008084815260200190815260200160002060008201518160000155602082015181600101559050505050565b60008060008084815260200190815260200160002060000154600080858152602001908152602001600020600101549150915091509156fea264697066735822122058e80fd8d006cecdd0782af01923f72653dea54ec92f765b609c81e27137ab8764736f6c63430007060033",
  "immutableReferences": {},
  "source": "// SPDX-License-Identifier: MIT\n\npragma solidity >=0.7.0 <0.9.0;\n\ncontract Notary {\n\n  struct Record {\n      uint mineTime;\n      uint blockNumber;\n    }\n\n  mapping (bytes32 => Record) private docHashes;\n\n  constructor() {\n  }\n\n  function addDocHash (bytes32 hash) public {\n      Record memory newRecord = Record(block.timestamp, block.number);\n      docHashes[hash] = newRecord;\n    }\n  function findDocHash (bytes32 hash) public view returns(uint, uint) {\n      return (docHashes[hash].mineTime, docHashes[hash].blockNumber);\n  }\n}\n\n\n",
  "sourcePath": "/mnt/c/Users/DELL/Desktop/Verified_Contracts/Notary/contracts/Notary.sol",
  "compiler": {
    "name": "solc",
    "version": "0.7.6+commit.7338295f.Emscripten.clang"
  },
  "schemaVersion": "3.3.4",
  "updatedAt": "2021-04-24T15:14:11.651Z",
  "networkType": "ethereum",
  "devdoc": {
    "kind": "dev",
    "methods": {},
    "version": 1
  },
  "userdoc": {
    "kind": "user",
    "methods": {},
    "version": 1
  }
}